{
  "_format": "hh-sol-artifact-1",
  "contractName": "BondingNOM",
  "sourceName": "contracts/BondingNOM.sol",
  "abi": [
    {
      "inputs": [
        {
          "internalType": "address",
          "name": "NOMContAddr",
          "type": "address"
        }
      ],
      "stateMutability": "nonpayable",
      "type": "constructor"
    },
    {
      "anonymous": false,
      "inputs": [
        {
          "indexed": true,
          "internalType": "address",
          "name": "previousOwner",
          "type": "address"
        },
        {
          "indexed": true,
          "internalType": "address",
          "name": "newOwner",
          "type": "address"
        }
      ],
      "name": "OwnershipTransferred",
      "type": "event"
    },
    {
      "anonymous": false,
      "inputs": [
        {
          "indexed": true,
          "internalType": "address",
          "name": "_by",
          "type": "address"
        },
        {
          "indexed": false,
          "internalType": "uint256",
          "name": "amountNOM",
          "type": "uint256"
        },
        {
          "indexed": false,
          "internalType": "uint256",
          "name": "amountETH",
          "type": "uint256"
        },
        {
          "indexed": false,
          "internalType": "uint256",
          "name": "price",
          "type": "uint256"
        },
        {
          "indexed": false,
          "internalType": "uint256",
          "name": "supply",
          "type": "uint256"
        },
        {
          "indexed": false,
          "internalType": "string",
          "name": "buyOrSell",
          "type": "string"
        },
        {
          "indexed": false,
          "internalType": "int256",
          "name": "slippage",
          "type": "int256"
        }
      ],
      "name": "Transaction",
      "type": "event"
    },
    {
      "inputs": [
        {
          "internalType": "uint256",
          "name": "supplyTop",
          "type": "uint256"
        },
        {
          "internalType": "uint256",
          "name": "supplyBot",
          "type": "uint256"
        }
      ],
      "name": "NOMSupToETH",
      "outputs": [
        {
          "internalType": "uint256",
          "name": "",
          "type": "uint256"
        }
      ],
      "stateMutability": "view",
      "type": "function"
    },
    {
      "inputs": [],
      "name": "NOMTokenContract",
      "outputs": [
        {
          "internalType": "address",
          "name": "",
          "type": "address"
        }
      ],
      "stateMutability": "view",
      "type": "function"
    },
    {
      "inputs": [],
      "name": "a",
      "outputs": [
        {
          "internalType": "uint256",
          "name": "",
          "type": "uint256"
        }
      ],
      "stateMutability": "view",
      "type": "function"
    },
    {
      "inputs": [],
      "name": "burnedNOM",
      "outputs": [
        {
          "internalType": "uint256",
          "name": "",
          "type": "uint256"
        }
      ],
      "stateMutability": "view",
      "type": "function"
    },
    {
      "inputs": [
        {
          "internalType": "uint256",
          "name": "estAmountNOM",
          "type": "uint256"
        },
        {
          "internalType": "uint256",
          "name": "allowSlip",
          "type": "uint256"
        }
      ],
      "name": "buyNOM",
      "outputs": [],
      "stateMutability": "payable",
      "type": "function"
    },
    {
      "inputs": [
        {
          "internalType": "uint256",
          "name": "amountETH",
          "type": "uint256"
        }
      ],
      "name": "buyQuoteETH",
      "outputs": [
        {
          "internalType": "uint256",
          "name": "",
          "type": "uint256"
        }
      ],
      "stateMutability": "view",
      "type": "function"
    },
    {
      "inputs": [
        {
          "internalType": "uint256",
          "name": "amountNOM",
          "type": "uint256"
        }
      ],
      "name": "buyQuoteNOM",
      "outputs": [
        {
          "internalType": "uint256",
          "name": "",
          "type": "uint256"
        }
      ],
      "stateMutability": "view",
      "type": "function"
    },
    {
      "inputs": [
        {
          "internalType": "uint256",
          "name": "x",
          "type": "uint256"
        }
      ],
      "name": "cubrtu",
      "outputs": [
        {
          "internalType": "uint256",
          "name": "",
          "type": "uint256"
        }
      ],
      "stateMutability": "pure",
      "type": "function"
    },
    {
      "inputs": [],
      "name": "decimals",
      "outputs": [
        {
          "internalType": "uint8",
          "name": "",
          "type": "uint8"
        }
      ],
      "stateMutability": "view",
      "type": "function"
    },
    {
      "inputs": [
        {
          "internalType": "int128",
          "name": "fixed64",
          "type": "int128"
        }
      ],
      "name": "f64ToTok",
      "outputs": [
        {
          "internalType": "uint256",
          "name": "",
          "type": "uint256"
        }
      ],
      "stateMutability": "view",
      "type": "function"
    },
    {
      "inputs": [],
      "name": "getBondPrice",
      "outputs": [
        {
          "internalType": "uint256",
          "name": "",
          "type": "uint256"
        }
      ],
      "stateMutability": "view",
      "type": "function"
    },
    {
      "inputs": [],
      "name": "getNOMAddr",
      "outputs": [
        {
          "internalType": "address",
          "name": "",
          "type": "address"
        }
      ],
      "stateMutability": "view",
      "type": "function"
    },
    {
      "inputs": [],
      "name": "getSupplyNOM",
      "outputs": [
        {
          "internalType": "uint256",
          "name": "",
          "type": "uint256"
        }
      ],
      "stateMutability": "view",
      "type": "function"
    },
    {
      "inputs": [],
      "name": "owner",
      "outputs": [
        {
          "internalType": "address",
          "name": "",
          "type": "address"
        }
      ],
      "stateMutability": "view",
      "type": "function"
    },
    {
      "inputs": [
        {
          "internalType": "uint256",
          "name": "_supplyNOM",
          "type": "uint256"
        }
      ],
      "name": "priceAtSupply",
      "outputs": [
        {
          "internalType": "uint256",
          "name": "",
          "type": "uint256"
        }
      ],
      "stateMutability": "view",
      "type": "function"
    },
    {
      "inputs": [],
      "name": "priceBondCurve",
      "outputs": [
        {
          "internalType": "uint256",
          "name": "",
          "type": "uint256"
        }
      ],
      "stateMutability": "view",
      "type": "function"
    },
    {
      "inputs": [],
      "name": "renounceOwnership",
      "outputs": [],
      "stateMutability": "nonpayable",
      "type": "function"
    },
    {
      "inputs": [
        {
          "internalType": "uint256",
          "name": "amountNOM",
          "type": "uint256"
        },
        {
          "internalType": "uint256",
          "name": "estAmountETH",
          "type": "uint256"
        },
        {
          "internalType": "uint256",
          "name": "allowSlip",
          "type": "uint256"
        }
      ],
      "name": "sellNOM",
      "outputs": [],
      "stateMutability": "payable",
      "type": "function"
    },
    {
      "inputs": [
        {
          "internalType": "uint256",
          "name": "amountNOM",
          "type": "uint256"
        }
      ],
      "name": "sellQuoteNOM",
      "outputs": [
        {
          "internalType": "uint256",
          "name": "",
          "type": "uint256"
        }
      ],
      "stateMutability": "view",
      "type": "function"
    },
    {
      "inputs": [
        {
          "internalType": "uint256",
          "name": "price",
          "type": "uint256"
        }
      ],
      "name": "supplyAtPrice",
      "outputs": [
        {
          "internalType": "uint256",
          "name": "",
          "type": "uint256"
        }
      ],
      "stateMutability": "view",
      "type": "function"
    },
    {
      "inputs": [],
      "name": "supplyNOM",
      "outputs": [
        {
          "internalType": "uint256",
          "name": "",
          "type": "uint256"
        }
      ],
      "stateMutability": "view",
      "type": "function"
    },
    {
      "inputs": [],
      "name": "teamBalance",
      "outputs": [
        {
          "internalType": "uint256",
          "name": "",
          "type": "uint256"
        }
      ],
      "stateMutability": "view",
      "type": "function"
    },
    {
      "inputs": [
        {
          "internalType": "uint256",
          "name": "token",
          "type": "uint256"
        }
      ],
      "name": "tokToF64",
      "outputs": [
        {
          "internalType": "int128",
          "name": "",
          "type": "int128"
        }
      ],
      "stateMutability": "view",
      "type": "function"
    },
    {
      "inputs": [
        {
          "internalType": "address",
          "name": "newOwner",
          "type": "address"
        }
      ],
      "name": "transferOwnership",
      "outputs": [],
      "stateMutability": "nonpayable",
      "type": "function"
    },
    {
      "inputs": [],
      "name": "withdraw",
      "outputs": [
        {
          "internalType": "bool",
          "name": "success",
          "type": "bool"
        }
      ],
      "stateMutability": "nonpayable",
      "type": "function"
    }
  ],
  "bytecode": "0x6080604052600060035560006004556012600560006101000a81548160ff021916908360ff1602179055506200005a6305f5e100600560009054906101000a900460ff1660ff16600a0a620001da60201b62001e411760201c565b6006553480156200006a57600080fd5b5060405162002ee538038062002ee5833981810160405260208110156200009057600080fd5b81019080805190602001909291905050506000620000b36200026560201b60201c565b9050806000806101000a81548173ffffffffffffffffffffffffffffffffffffffff021916908373ffffffffffffffffffffffffffffffffffffffff1602179055508073ffffffffffffffffffffffffffffffffffffffff16600073ffffffffffffffffffffffffffffffffffffffff167f8be0079c531659141344cd1fd0a4f28419497f9722a3daafe3b4186f6b6457e060405160405180910390a35080600260006101000a81548173ffffffffffffffffffffffffffffffffffffffff021916908373ffffffffffffffffffffffffffffffffffffffff16021790555080600160006101000a81548173ffffffffffffffffffffffffffffffffffffffff021916908373ffffffffffffffffffffffffffffffffffffffff160217905550506200026d565b600080831415620001ef57600090506200025f565b60008284029050828482816200020157fe5b04146200025a576040517f08c379a000000000000000000000000000000000000000000000000000000000815260040180806020018281038252602181526020018062002ec46021913960400191505060405180910390fd5b809150505b92915050565b600033905090565b612c47806200027d6000396000f3fe6080604052600436106101655760003560e01c80635700f200116100d15780638da5cb5b1161008a578063bc0f023c11610064578063bc0f023c14610661578063daff394a1461068c578063eb208d6f146106db578063f2fde38b1461071d57610165565b80638da5cb5b1461059c5780638e117f6d146105dd578063afea58521461060857610165565b80635700f2001461044d57806359eaced01461049f578063715018a6146104e05780637abe7448146104f75780637eda93471461054657806389e852171461057157610165565b806329b57f881161012357806329b57f8814610309578063313ce5671461035b5780633542a097146103895780633c4df4fc146103ca5780633ccfd60b146103f55780634477392b1461042257610165565b80627f39c71461016a57806302689ad6146101b9578063080d1f82146102085780630dbe671f1461024057806325572aa41461026b57806328904475146102ba575b600080fd5b34801561017657600080fd5b506101a36004803603602081101561018d57600080fd5b810190808035906020019092919050505061076e565b6040518082815260200191505060405180910390f35b3480156101c557600080fd5b506101f2600480360360208110156101dc57600080fd5b810190808035906020019092919050505061093d565b6040518082815260200191505060405180910390f35b61023e6004803603604081101561021e57600080fd5b810190808035906020019092919080359060200190929190505050610a0d565b005b34801561024c57600080fd5b50610255610d4b565b6040518082815260200191505060405180910390f35b34801561027757600080fd5b506102a46004803603602081101561028e57600080fd5b8101908080359060200190929190505050610d51565b6040518082815260200191505060405180910390f35b3480156102c657600080fd5b506102f3600480360360208110156102dd57600080fd5b8101908080359060200190929190505050610df9565b6040518082815260200191505060405180910390f35b34801561031557600080fd5b506103426004803603602081101561032c57600080fd5b8101908080359060200190929190505050610ed4565b6040518082600f0b815260200191505060405180910390f35b34801561036757600080fd5b50610370610efc565b604051808260ff16815260200191505060405180910390f35b34801561039557600080fd5b5061039e610f0f565b604051808273ffffffffffffffffffffffffffffffffffffffff16815260200191505060405180910390f35b3480156103d657600080fd5b506103df610f35565b6040518082815260200191505060405180910390f35b34801561040157600080fd5b5061040a610f3b565b60405180821515815260200191505060405180910390f35b34801561042e57600080fd5b506104376110c6565b6040518082815260200191505060405180910390f35b34801561045957600080fd5b506104896004803603602081101561047057600080fd5b810190808035600f0b9060200190929190505050611184565b6040518082815260200191505060405180910390f35b3480156104ab57600080fd5b506104b46111ac565b604051808273ffffffffffffffffffffffffffffffffffffffff16815260200191505060405180910390f35b3480156104ec57600080fd5b506104f56111d6565b005b34801561050357600080fd5b506105306004803603602081101561051a57600080fd5b8101908080359060200190929190505050611343565b6040518082815260200191505060405180910390f35b34801561055257600080fd5b5061055b61147b565b6040518082815260200191505060405180910390f35b34801561057d57600080fd5b50610586611481565b6040518082815260200191505060405180910390f35b3480156105a857600080fd5b506105b16114c6565b604051808273ffffffffffffffffffffffffffffffffffffffff16815260200191505060405180910390f35b3480156105e957600080fd5b506105f26114ef565b6040518082815260200191505060405180910390f35b34801561061457600080fd5b5061064b6004803603604081101561062b57600080fd5b8101908080359060200190929190803590602001909291905050506114f9565b6040518082815260200191505060405180910390f35b34801561066d57600080fd5b506106766116cc565b6040518082815260200191505060405180910390f35b34801561069857600080fd5b506106c5600480360360208110156106af57600080fd5b81019080803590602001909291905050506116d6565b6040518082815260200191505060405180910390f35b61071b600480360360608110156106f157600080fd5b8101908080359060200190929190803590602001909291908035906020019092919050505061177a565b005b34801561072957600080fd5b5061076c6004803603602081101561074057600080fd5b81019080803573ffffffffffffffffffffffffffffffffffffffff169060200190929190505050611c4f565b005b6000808214156107815760009050610938565b6000829050600060019050720100000000000000000000000000000000000082106107b557609082901c9150603081901b90505b690100000000000000000082106107d557604882901c9150601881901b90505b64100000000082106107f057602482901c9150600c81901b90505b62040000821061080957601282901c9150600681901b90505b611000821061082157600c82901c9150600481901b90505b610200821061083957600982901c9150600381901b90505b6040821061085057600682901c9150600281901b90505b6008821061086057600181901b90505b6003816002026002830a868161087257fe5b04018161087b57fe5b0490506003816002026002830a868161089057fe5b04018161089957fe5b0490506003816002026002830a86816108ae57fe5b0401816108b757fe5b0490506003816002026002830a86816108cc57fe5b0401816108d557fe5b0490506003816002026002830a86816108ea57fe5b0401816108f357fe5b0490506003816002026002830a868161090857fe5b04018161091157fe5b0490506003816002026002830a868161092657fe5b04018161092f57fe5b04905080925050505b919050565b6000808214156109505760009050610a08565b6109586110c6565b600354038211156109b4576040517f08c379a0000000000000000000000000000000000000000000000000000000008152600401808060200182810382526038815260200180612a916038913960400191505060405180910390fd5b60006109cb83600354611ec790919063ffffffff16565b905060006109db600354836114f9565b9050610a036109f4606483611f4a90919063ffffffff16565b82611ec790919063ffffffff16565b925050505b919050565b60003411610a66576040517f08c379a000000000000000000000000000000000000000000000000000000000815260040180806020018281038252602a815260200180612b5b602a913960400191505060405180910390fd5b610a7d600354600654611ec790919063ffffffff16565b821115610ad5576040517f08c379a0000000000000000000000000000000000000000000000000000000008152600401808060200182810382526036815260200180612bdc6036913960400191505060405180910390fd5b6000610ae034611343565b905080831115610b9857610b1182610b0361271086611f4a90919063ffffffff16565b611e4190919063ffffffff16565b610b248285611ec790919063ffffffff16565b10610b97576040517f08c379a000000000000000000000000000000000000000000000000000000000815260040180806020018281038252601d8152602001807f536c6970706167652067726561746572207468616e20616c6c6f77656400000081525060200191505060405180910390fd5b5b60008184039050610bb482600354611fd390919063ffffffff16565b600381905550610bc56003546116d6565b600481905550600160009054906101000a900473ffffffffffffffffffffffffffffffffffffffff1673ffffffffffffffffffffffffffffffffffffffff1663a9059cbb33846040518363ffffffff1660e01b8152600401808373ffffffffffffffffffffffffffffffffffffffff16815260200182815260200192505050602060405180830381600087803b158015610c5e57600080fd5b505af1158015610c72573d6000803e3d6000fd5b505050506040513d6020811015610c8857600080fd5b8101908080519060200190929190505050503373ffffffffffffffffffffffffffffffffffffffff167fa70108fc37a77e4fb183df412c5ec85d9c12294d6f4c1634c5d2a594a44db9aa8334600454600354866040518086815260200185815260200184815260200183815260200180602001838152602001828103825260038152602001807f6275790000000000000000000000000000000000000000000000000000000000815250602001965050505050505060405180910390a250505050565b60065481565b600080821415610d645760009050610df4565b670de0b6b3a7640000821115610dc5576040517f08c379a0000000000000000000000000000000000000000000000000000000008152600401808060200182810382526033815260200180612a2e6033913960400191505060405180910390fd5b610df1610dec610ddc610dd785610ed4565b61205b565b610de7600654610ed4565b612084565b611184565b90505b919050565b600080821415610e0c5760009050610ecf565b610e23600354600654611ec790919063ffffffff16565b821115610e7b576040517f08c379a0000000000000000000000000000000000000000000000000000000008152600401808060200182810382526038815260200180612a916038913960400191505060405180910390fd5b6000610e9283600354611fd390919063ffffffff16565b90506000610ea2826003546114f9565b9050610eca610ebb606483611f4a90919063ffffffff16565b82611ec790919063ffffffff16565b925050505b919050565b6000610ef582600560009054906101000a900460ff1660ff16600a0a6120ef565b9050919050565b600560009054906101000a900460ff1681565b600260009054906101000a900473ffffffffffffffffffffffffffffffffffffffff1681565b60035481565b6000610f45612157565b73ffffffffffffffffffffffffffffffffffffffff16610f636114c6565b73ffffffffffffffffffffffffffffffffffffffff1614610fec576040517f08c379a00000000000000000000000000000000000000000000000000000000081526004018080602001828103825260208152602001807f4f776e61626c653a2063616c6c6572206973206e6f7420746865206f776e657281525060200191505060405180910390fd5b60006003541415611047573373ffffffffffffffffffffffffffffffffffffffff166108fc479081150290604051600060405180830381858888f1935050505015801561103d573d6000803e3d6000fd5b50600190506110c3565b600061105c6003546110576110c6565b6114f9565b905060006110738247611ec790919063ffffffff16565b90503373ffffffffffffffffffffffffffffffffffffffff166108fc829081150290604051600060405180830381858888f193505050501580156110bb573d6000803e3d6000fd5b506001925050505b90565b600061117f600160009054906101000a900473ffffffffffffffffffffffffffffffffffffffff1673ffffffffffffffffffffffffffffffffffffffff166318160ddd6040518163ffffffff1660e01b815260040160206040518083038186803b15801561113357600080fd5b505afa158015611147573d6000803e3d6000fd5b505050506040513d602081101561115d57600080fd5b8101908080519060200190929190505050600654611ec790919063ffffffff16565b905090565b60006111a582600560009054906101000a900460ff1660ff16600a0a61215f565b9050919050565b6000600260009054906101000a900473ffffffffffffffffffffffffffffffffffffffff16905090565b6111de612157565b73ffffffffffffffffffffffffffffffffffffffff166111fc6114c6565b73ffffffffffffffffffffffffffffffffffffffff1614611285576040517f08c379a00000000000000000000000000000000000000000000000000000000081526004018080602001828103825260208152602001807f4f776e61626c653a2063616c6c6572206973206e6f7420746865206f776e657281525060200191505060405180910390fd5b600073ffffffffffffffffffffffffffffffffffffffff1660008054906101000a900473ffffffffffffffffffffffffffffffffffffffff1673ffffffffffffffffffffffffffffffffffffffff167f8be0079c531659141344cd1fd0a4f28419497f9722a3daafe3b4186f6b6457e060405160405180910390a360008060006101000a81548173ffffffffffffffffffffffffffffffffffffffff021916908373ffffffffffffffffffffffffffffffffffffffff160217905550565b6000808214156113565760009050611476565b600061137e61136f606485611f4a90919063ffffffff16565b84611ec790919063ffffffff16565b9050600061140f61140a61139f600654600654611e4190919063ffffffff16565b6114056114006113c06113b2600361221a565b6113bb89610ed4565b612084565b6113fb6113eb6113e46113d4600354610ed4565b6113df600654610ed4565b61223d565b60026122c0565b6113f6600354610ed4565b612084565b6125d5565b611184565b611e41565b61076e565b905060065481111561146c576040517f08c379a0000000000000000000000000000000000000000000000000000000008152600401808060200182810382526026815260200180612a086026913960400191505060405180910390fd5b6003548103925050505b919050565b60045481565b6000806003541415611495574790506114c3565b60006114aa6003546114a56110c6565b6114f9565b90506114bf8147611ec790919063ffffffff16565b9150505b90565b60008060009054906101000a900473ffffffffffffffffffffffffffffffffffffffff16905090565b6000600454905090565b600080828403141561150e57600090506116c6565b818311611566576040517f08c379a0000000000000000000000000000000000000000000000000000000008152600401808060200182810382526022815260200180612aea6022913960400191505060405180910390fd5b6006548311156115c1576040517f08c379a000000000000000000000000000000000000000000000000000000000815260040180806020018281038252602e815260200180612b2d602e913960400191505060405180910390fd5b6115d8600354600654611ec790919063ffffffff16565b6115eb8385611ec790919063ffffffff16565b1115611642576040517f08c379a000000000000000000000000000000000000000000000000000000000815260040180806020018281038252602e815260200180612bae602e913960400191505060405180910390fd5b6116c36116be611665611656600654610ed4565b611660600361221a565b61223d565b6116b961168e61168761167789610ed4565b611682600654610ed4565b61223d565b60036122c0565b6116b46116ad61169d89610ed4565b6116a8600654610ed4565b61223d565b60036122c0565b61263c565b612084565b611184565b90505b92915050565b6000600354905090565b6000808214156116e95760009050611775565b600654821115611744576040517f08c379a0000000000000000000000000000000000000000000000000000000008152600401808060200182810382526030815260200180612a616030913960400191505060405180910390fd5b61177261176d61176661175685610ed4565b611761600654610ed4565b61223d565b60026122c0565b611184565b90505b919050565b600083116117d3576040517f08c379a0000000000000000000000000000000000000000000000000000000008152600401808060200182810382526021815260200180612b0c6021913960400191505060405180910390fd5b6117db6110c6565b60035403831115611837576040517f08c379a0000000000000000000000000000000000000000000000000000000008152600401808060200182810382526038815260200180612a916038913960400191505060405180910390fd5b600160009054906101000a900473ffffffffffffffffffffffffffffffffffffffff1673ffffffffffffffffffffffffffffffffffffffff1663dd62ed3e33306040518363ffffffff1660e01b8152600401808373ffffffffffffffffffffffffffffffffffffffff1681526020018273ffffffffffffffffffffffffffffffffffffffff16815260200192505050602060405180830381600087803b1580156118e057600080fd5b505af11580156118f4573d6000803e3d6000fd5b505050506040513d602081101561190a57600080fd5b8101908080519060200190929190505050831115611973576040517f08c379a0000000000000000000000000000000000000000000000000000000008152600401808060200182810382526029815260200180612b856029913960400191505060405180910390fd5b600061197e8461093d565b905080831115611a36576119af826119a161271086611f4a90919063ffffffff16565b611e4190919063ffffffff16565b6119c28285611ec790919063ffffffff16565b10611a35576040517f08c379a000000000000000000000000000000000000000000000000000000000815260040180806020018281038252601d8152602001807f536c6970706167652067726561746572207468616e20616c6c6f77656400000081525060200191505060405180910390fd5b5b60008184039050600160009054906101000a900473ffffffffffffffffffffffffffffffffffffffff1673ffffffffffffffffffffffffffffffffffffffff166323b872dd3330886040518463ffffffff1660e01b8152600401808473ffffffffffffffffffffffffffffffffffffffff1681526020018373ffffffffffffffffffffffffffffffffffffffff1681526020018281526020019350505050602060405180830381600087803b158015611aee57600080fd5b505af1158015611b02573d6000803e3d6000fd5b505050506040513d6020811015611b1857600080fd5b810190808051906020019092919050505050611b3f85600354611ec790919063ffffffff16565b600381905550611b506003546116d6565b6004819055503373ffffffffffffffffffffffffffffffffffffffff167fa70108fc37a77e4fb183df412c5ec85d9c12294d6f4c1634c5d2a594a44db9aa8684600454600354866040518086815260200185815260200184815260200183815260200180602001838152602001828103825260048152602001807f73656c6c00000000000000000000000000000000000000000000000000000000815250602001965050505050505060405180910390a23373ffffffffffffffffffffffffffffffffffffffff166108fc839081150290604051600060405180830381858888f19350505050158015611c47573d6000803e3d6000fd5b505050505050565b611c57612157565b73ffffffffffffffffffffffffffffffffffffffff16611c756114c6565b73ffffffffffffffffffffffffffffffffffffffff1614611cfe576040517f08c379a00000000000000000000000000000000000000000000000000000000081526004018080602001828103825260208152602001807f4f776e61626c653a2063616c6c6572206973206e6f7420746865206f776e657281525060200191505060405180910390fd5b600073ffffffffffffffffffffffffffffffffffffffff168173ffffffffffffffffffffffffffffffffffffffff161415611d84576040517f08c379a00000000000000000000000000000000000000000000000000000000081526004018080602001828103825260268152602001806129e26026913960400191505060405180910390fd5b8073ffffffffffffffffffffffffffffffffffffffff1660008054906101000a900473ffffffffffffffffffffffffffffffffffffffff1673ffffffffffffffffffffffffffffffffffffffff167f8be0079c531659141344cd1fd0a4f28419497f9722a3daafe3b4186f6b6457e060405160405180910390a3806000806101000a81548173ffffffffffffffffffffffffffffffffffffffff021916908373ffffffffffffffffffffffffffffffffffffffff16021790555050565b600080831415611e545760009050611ec1565b6000828402905082848281611e6557fe5b0414611ebc576040517f08c379a0000000000000000000000000000000000000000000000000000000008152600401808060200182810382526021815260200180612ac96021913960400191505060405180910390fd5b809150505b92915050565b600082821115611f3f576040517f08c379a000000000000000000000000000000000000000000000000000000000815260040180806020018281038252601e8152602001807f536166654d6174683a207375627472616374696f6e206f766572666c6f77000081525060200191505060405180910390fd5b818303905092915050565b6000808211611fc1576040517f08c379a000000000000000000000000000000000000000000000000000000000815260040180806020018281038252601a8152602001807f536166654d6174683a206469766973696f6e206279207a65726f00000000000081525060200191505060405180910390fd5b818381611fca57fe5b04905092915050565b600080828401905083811015612051576040517f08c379a000000000000000000000000000000000000000000000000000000000815260040180806020018281038252601b8152602001807f536166654d6174683a206164646974696f6e206f766572666c6f77000000000081525060200191505060405180910390fd5b8091505092915050565b60008082600f0b121561206d57600080fd5b61207d604083600f0b901b6126a3565b9050919050565b600080604083600f0b85600f0b02901d90507fffffffffffffffffffffffffffffffff80000000000000000000000000000000600f0b81121580156120dc57506f7fffffffffffffffffffffffffffffff600f0b8113155b6120e557600080fd5b8091505092915050565b6000808214156120fe57600080fd5b600061210a8484612820565b90506f7fffffffffffffffffffffffffffffff6fffffffffffffffffffffffffffffffff16816fffffffffffffffffffffffffffffffff16111561214d57600080fd5b8091505092915050565b600033905090565b6000808214156121725760009050612214565b600083600f0b121561218357600080fd5b600060406fffffffffffffffffffffffffffffffff841685600f0b02901c90506000608084901c85600f0b02905077ffffffffffffffffffffffffffffffffffffffffffffffff8111156121d657600080fd5b604081901b9050817fffffffffffffffffffffffffffffffffffffffffffffffffffffffffffffffff0381111561220c57600080fd5b818101925050505b92915050565b6000677fffffffffffffff82111561223157600080fd5b604082901b9050919050565b60008082600f0b141561224f57600080fd5b600082600f0b604085600f0b901b8161226457fe5b0590507fffffffffffffffffffffffffffffffff80000000000000000000000000000000600f0b81121580156122ad57506f7fffffffffffffffffffffffffffffff600f0b8113155b6122b657600080fd5b8091505092915050565b600080600084600f0b1280156122d857506001808416145b905060008085600f0b126122ec57846122f1565b846000035b6fffffffffffffffffffffffffffffffff169050600070010000000000000000000000000000000090506801000000000000000082116123cb57603f82901b91505b600085146123bf576000600186161461235057607f828202901c90505b607f828302901c91506000600286161461236e57607f828202901c90505b607f828302901c91506000600486161461238c57607f828202901c90505b607f828302901c9150600060088616146123aa57607f828202901c90505b607f828302901c9150600485901c9450612333565b604081901c9050612565565b6000603f90506c010000000000000000000000008310156123f457602083901b92506020810390505b6e01000000000000000000000000000083101561241957601083901b92506010810390505b6f0100000000000000000000000000000083101561243f57600883901b92506008810390505b6f1000000000000000000000000000000083101561246557600483901b92506004810390505b6f4000000000000000000000000000000083101561248b57600283901b92506002810390505b6f800000000000000000000000000000008310156124b157600183901b92506001810390505b60005b6000871461254c57604082106124c957600080fd5b6000600188161461250a57607f848402901c9250818101905070010000000000000000000000000000000083111561250957600183901c92506001810190505b5b607f848502901c9350600182901b9150700100000000000000000000000000000000841061254057600184901c93506001820191505b600187901c96506124b4565b6040811061255957600080fd5b8060400383901c925050505b6000836125725781612577565b816000035b90507fffffffffffffffffffffffffffffffff80000000000000000000000000000000600f0b81121580156125bf57506f7fffffffffffffffffffffffffffffff600f0b8113155b6125c857600080fd5b8094505050505092915050565b60008082600f0b84600f0b0190507fffffffffffffffffffffffffffffffff80000000000000000000000000000000600f0b811215801561262957506f7fffffffffffffffffffffffffffffff600f0b8113155b61263257600080fd5b8091505092915050565b60008082600f0b84600f0b0390507fffffffffffffffffffffffffffffffff80000000000000000000000000000000600f0b811215801561269057506f7fffffffffffffffffffffffffffffff600f0b8113155b61269957600080fd5b8091505092915050565b6000808214156126b6576000905061281b565b600082905060006001905070010000000000000000000000000000000082106126e857608082901c9150604081901b90505b68010000000000000000821061270757604082901c9150602081901b90505b640100000000821061272257602082901c9150601081901b90505b62010000821061273b57601082901c9150600881901b90505b610100821061275357600882901c9150600481901b90505b6010821061276a57600482901c9150600281901b90505b6008821061277a57600181901b90505b600181858161278557fe5b048201901c9050600181858161279757fe5b048201901c905060018185816127a957fe5b048201901c905060018185816127bb57fe5b048201901c905060018185816127cd57fe5b048201901c905060018185816127df57fe5b048201901c905060018185816127f157fe5b048201901c9050600081858161280357fe5b0490508082106128135780612815565b815b93505050505b919050565b60008082141561282f57600080fd5b600077ffffffffffffffffffffffffffffffffffffffffffffffff84116128655782604085901b8161285d57fe5b0490506129ba565b600060c09050600060c086901c9050640100000000811061288e57602081901c90506020820191505b6201000081106128a657601081901c90506010820191505b61010081106128bd57600881901c90506008820191505b601081106128d357600481901c90506004820191505b600481106128e957600281901c90506002820191505b600281106128f8576001820191505b600160bf830360018703901c018260ff0387901b8161291357fe5b0492506fffffffffffffffffffffffffffffffff83111561293357600080fd5b6000608086901c8402905060006fffffffffffffffffffffffffffffffff871685029050600060c089901c9050600060408a901b905082811015612978576001820391505b8281039050608084901b925082811015612993576001820391505b8281039050608084901c82146129a557fe5b8881816129ae57fe5b04870196505050505050505b6fffffffffffffffffffffffffffffffff8111156129d757600080fd5b809150509291505056fe4f776e61626c653a206e6577206f776e657220697320746865207a65726f2061646472657373537570706c7920546f702067726561746572207468616e20696e697469616c20737570706c79426f6e64696e67204375727665207465726d696e617465732062656c6f77204554482f624e4f4d20707269636520696e707574426f6e64696e67204375727665207465726d696e617465732062656c6f7720624e4f4d20616d6f756e7420696e70757453656c6c20616d6f756e74206f6620624e4f4d2067726561746572207468616e20756e626f6e64656420616d6f756e74206f6620624e4f4d536166654d6174683a206d756c7469706c69636174696f6e206f766572666c6f77537570706c7920426f742067726561746572207468616e20537570706c7920546f7053656c6c20616d6f756e74206f6620624e4f4d20657175616c20746f207a65726f537570706c7920546f702067726561746572207468616e20696e697469616c20737570706c79206f6620624e4f4d416d6f756e74204554482073656e742077697468207265717565737420657175616c20746f207a65726f496e73756666696369656e7420426f6e6420436f6e747261637420624e4f4d20616c6c6f77616e6365526571756573742067726561746572207468616e2074686520626f6e64656420737570706c79206f6620624e4f4d457374696d6174656420616d6f756e74206f6620624e4f4d206772656174657220626f6e64656420737570706c79206f6620624e4f4da26469706673582212205b91fd07316d7d08adc7f63bddaf36353d93c1ab3c84b457280d6ce1c668c43d64736f6c63430007060033536166654d6174683a206d756c7469706c69636174696f6e206f766572666c6f77",
  "linkReferences": {},
  "deployedLinkReferences": {}
}