{
  "_format": "hh-sol-artifact-1",
  "contractName": "BondingNOM",
  "sourceName": "contracts/BondingNOM.sol",
  "abi": [
    {
      "inputs": [
        {
          "internalType": "address",
          "name": "NOMContAddr",
          "type": "address"
        }
      ],
      "stateMutability": "nonpayable",
      "type": "constructor"
    },
    {
      "anonymous": false,
      "inputs": [
        {
          "indexed": true,
          "internalType": "address",
          "name": "previousOwner",
          "type": "address"
        },
        {
          "indexed": true,
          "internalType": "address",
          "name": "newOwner",
          "type": "address"
        }
      ],
      "name": "OwnershipTransferred",
      "type": "event"
    },
    {
      "anonymous": false,
      "inputs": [
        {
          "indexed": true,
          "internalType": "address",
          "name": "_by",
          "type": "address"
        },
        {
          "indexed": false,
          "internalType": "uint256",
          "name": "amountNOM",
          "type": "uint256"
        },
        {
          "indexed": false,
          "internalType": "uint256",
          "name": "amountETH",
          "type": "uint256"
        },
        {
          "indexed": false,
          "internalType": "uint256",
          "name": "price",
          "type": "uint256"
        },
        {
          "indexed": false,
          "internalType": "uint256",
          "name": "supply",
          "type": "uint256"
        },
        {
          "indexed": false,
          "internalType": "string",
          "name": "buyOrSell",
          "type": "string"
        },
        {
          "indexed": false,
          "internalType": "int256",
          "name": "slippage",
          "type": "int256"
        }
      ],
      "name": "Transaction",
      "type": "event"
    },
    {
      "inputs": [
        {
          "internalType": "uint256",
          "name": "supplyTop",
          "type": "uint256"
        },
        {
          "internalType": "uint256",
          "name": "supplyBot",
          "type": "uint256"
        }
      ],
      "name": "NOMSupToETH",
      "outputs": [
        {
          "internalType": "uint256",
          "name": "",
          "type": "uint256"
        }
      ],
      "stateMutability": "view",
      "type": "function"
    },
    {
      "inputs": [],
      "name": "NOMTokenContract",
      "outputs": [
        {
          "internalType": "address",
          "name": "",
          "type": "address"
        }
      ],
      "stateMutability": "view",
      "type": "function"
    },
    {
      "inputs": [],
      "name": "a",
      "outputs": [
        {
          "internalType": "uint256",
          "name": "",
          "type": "uint256"
        }
      ],
      "stateMutability": "view",
      "type": "function"
    },
    {
      "inputs": [],
      "name": "burnedNOM",
      "outputs": [
        {
          "internalType": "uint256",
          "name": "",
          "type": "uint256"
        }
      ],
      "stateMutability": "view",
      "type": "function"
    },
    {
      "inputs": [
        {
          "internalType": "uint256",
          "name": "estAmountNOM",
          "type": "uint256"
        },
        {
          "internalType": "uint256",
          "name": "allowSlip",
          "type": "uint256"
        }
      ],
      "name": "buyNOM",
      "outputs": [],
      "stateMutability": "payable",
      "type": "function"
    },
    {
      "inputs": [
        {
          "internalType": "uint256",
          "name": "amountETH",
          "type": "uint256"
        }
      ],
      "name": "buyQuoteETH",
      "outputs": [
        {
          "internalType": "uint256",
          "name": "",
          "type": "uint256"
        }
      ],
      "stateMutability": "view",
      "type": "function"
    },
    {
      "inputs": [
        {
          "internalType": "uint256",
          "name": "amountNOM",
          "type": "uint256"
        }
      ],
      "name": "buyQuoteNOM",
      "outputs": [
        {
          "internalType": "uint256",
          "name": "",
          "type": "uint256"
        }
      ],
      "stateMutability": "view",
      "type": "function"
    },
    {
      "inputs": [
        {
          "internalType": "uint256",
          "name": "x",
          "type": "uint256"
        }
      ],
      "name": "cubrtu",
      "outputs": [
        {
          "internalType": "uint256",
          "name": "",
          "type": "uint256"
        }
      ],
      "stateMutability": "pure",
      "type": "function"
    },
    {
      "inputs": [],
      "name": "decimals",
      "outputs": [
        {
          "internalType": "uint8",
          "name": "",
          "type": "uint8"
        }
      ],
      "stateMutability": "view",
      "type": "function"
    },
    {
      "inputs": [],
      "name": "enableTrading",
      "outputs": [],
      "stateMutability": "nonpayable",
      "type": "function"
    },
    {
      "inputs": [
        {
          "internalType": "int128",
          "name": "fixed64",
          "type": "int128"
        }
      ],
      "name": "f64ToTok",
      "outputs": [
        {
          "internalType": "uint256",
          "name": "",
          "type": "uint256"
        }
      ],
      "stateMutability": "view",
      "type": "function"
    },
    {
      "inputs": [],
      "name": "getBondPrice",
      "outputs": [
        {
          "internalType": "uint256",
          "name": "",
          "type": "uint256"
        }
      ],
      "stateMutability": "view",
      "type": "function"
    },
    {
      "inputs": [],
      "name": "getNOMAddr",
      "outputs": [
        {
          "internalType": "address",
          "name": "",
          "type": "address"
        }
      ],
      "stateMutability": "view",
      "type": "function"
    },
    {
      "inputs": [],
      "name": "getSupplyNOM",
      "outputs": [
        {
          "internalType": "uint256",
          "name": "",
          "type": "uint256"
        }
      ],
      "stateMutability": "view",
      "type": "function"
    },
    {
      "inputs": [],
      "name": "getTradingEnabled",
      "outputs": [
        {
          "internalType": "bool",
          "name": "",
          "type": "bool"
        }
      ],
      "stateMutability": "view",
      "type": "function"
    },
    {
      "inputs": [],
      "name": "owner",
      "outputs": [
        {
          "internalType": "address",
          "name": "",
          "type": "address"
        }
      ],
      "stateMutability": "view",
      "type": "function"
    },
    {
      "inputs": [
        {
          "internalType": "uint256",
          "name": "_supplyNOM",
          "type": "uint256"
        }
      ],
      "name": "priceAtSupply",
      "outputs": [
        {
          "internalType": "uint256",
          "name": "",
          "type": "uint256"
        }
      ],
      "stateMutability": "view",
      "type": "function"
    },
    {
      "inputs": [],
      "name": "priceBondCurve",
      "outputs": [
        {
          "internalType": "uint256",
          "name": "",
          "type": "uint256"
        }
      ],
      "stateMutability": "view",
      "type": "function"
    },
    {
      "inputs": [],
      "name": "renounceOwnership",
      "outputs": [],
      "stateMutability": "nonpayable",
      "type": "function"
    },
    {
      "inputs": [
        {
          "internalType": "uint256",
          "name": "amountNOM",
          "type": "uint256"
        },
        {
          "internalType": "uint256",
          "name": "estAmountETH",
          "type": "uint256"
        },
        {
          "internalType": "uint256",
          "name": "allowSlip",
          "type": "uint256"
        }
      ],
      "name": "sellNOM",
      "outputs": [],
      "stateMutability": "payable",
      "type": "function"
    },
    {
      "inputs": [
        {
          "internalType": "uint256",
          "name": "amountNOM",
          "type": "uint256"
        }
      ],
      "name": "sellQuoteNOM",
      "outputs": [
        {
          "internalType": "uint256",
          "name": "",
          "type": "uint256"
        }
      ],
      "stateMutability": "view",
      "type": "function"
    },
    {
      "inputs": [
        {
          "internalType": "uint256",
          "name": "price",
          "type": "uint256"
        }
      ],
      "name": "supplyAtPrice",
      "outputs": [
        {
          "internalType": "uint256",
          "name": "",
          "type": "uint256"
        }
      ],
      "stateMutability": "view",
      "type": "function"
    },
    {
      "inputs": [],
      "name": "supplyNOM",
      "outputs": [
        {
          "internalType": "uint256",
          "name": "",
          "type": "uint256"
        }
      ],
      "stateMutability": "view",
      "type": "function"
    },
    {
      "inputs": [],
      "name": "teamBalance",
      "outputs": [
        {
          "internalType": "uint256",
          "name": "",
          "type": "uint256"
        }
      ],
      "stateMutability": "view",
      "type": "function"
    },
    {
      "inputs": [
        {
          "internalType": "uint256",
          "name": "token",
          "type": "uint256"
        }
      ],
      "name": "tokToF64",
      "outputs": [
        {
          "internalType": "int128",
          "name": "",
          "type": "int128"
        }
      ],
      "stateMutability": "view",
      "type": "function"
    },
    {
      "inputs": [],
      "name": "tradingEnabled",
      "outputs": [
        {
          "internalType": "bool",
          "name": "",
          "type": "bool"
        }
      ],
      "stateMutability": "view",
      "type": "function"
    },
    {
      "inputs": [
        {
          "internalType": "address",
          "name": "newOwner",
          "type": "address"
        }
      ],
      "name": "transferOwnership",
      "outputs": [],
      "stateMutability": "nonpayable",
      "type": "function"
    },
    {
      "inputs": [],
      "name": "withdraw",
      "outputs": [
        {
          "internalType": "bool",
          "name": "success",
          "type": "bool"
        }
      ],
      "stateMutability": "nonpayable",
      "type": "function"
    }
  ],
  "bytecode": "0x6080604052600060035560006004556012600560006101000a81548160ff021916908360ff1602179055506200005a6305f5e100600560009054906101000a900460ff1660ff16600a0a620001f560201b6200207b1760201c565b6006556000600760006101000a81548160ff0219169083151502179055503480156200008557600080fd5b506040516200313a3803806200313a83398181016040526020811015620000ab57600080fd5b81019080805190602001909291905050506000620000ce6200028060201b60201c565b9050806000806101000a81548173ffffffffffffffffffffffffffffffffffffffff021916908373ffffffffffffffffffffffffffffffffffffffff1602179055508073ffffffffffffffffffffffffffffffffffffffff16600073ffffffffffffffffffffffffffffffffffffffff167f8be0079c531659141344cd1fd0a4f28419497f9722a3daafe3b4186f6b6457e060405160405180910390a35080600260006101000a81548173ffffffffffffffffffffffffffffffffffffffff021916908373ffffffffffffffffffffffffffffffffffffffff16021790555080600160006101000a81548173ffffffffffffffffffffffffffffffffffffffff021916908373ffffffffffffffffffffffffffffffffffffffff1602179055505062000288565b6000808314156200020a57600090506200027a565b60008284029050828482816200021c57fe5b041462000275576040517f08c379a0000000000000000000000000000000000000000000000000000000008152600401808060200182810382526021815260200180620031196021913960400191505060405180910390fd5b809150505b92915050565b600033905090565b612e8180620002986000396000f3fe6080604052600436106101b65760003560e01c806359eaced0116100ec5780638e117f6d1161008a578063daff394a11610064578063daff394a14610721578063eb208d6f14610770578063f2fde38b146107b2578063fa83cb5814610803576101b6565b80638e117f6d14610672578063afea58521461069d578063bc0f023c146106f6576101b6565b80637eda9347116100c65780637eda9347146105c457806389e85217146105ef5780638a8c523c1461061a5780638da5cb5b14610631576101b6565b806359eaced01461051d578063715018a61461055e5780637abe744814610575576101b6565b8063313ce567116101595780633ccfd60b116101335780633ccfd60b146104465780634477392b146104735780634ada218b1461049e5780635700f200146104cb576101b6565b8063313ce567146103ac5780633542a097146103da5780633c4df4fc1461041b576101b6565b80630dbe671f116101955780630dbe671f1461029157806325572aa4146102bc578063289044751461030b57806329b57f881461035a576101b6565b80627f39c7146101bb57806302689ad61461020a578063080d1f8214610259575b600080fd5b3480156101c757600080fd5b506101f4600480360360208110156101de57600080fd5b8101908080359060200190929190505050610830565b6040518082815260200191505060405180910390f35b34801561021657600080fd5b506102436004803603602081101561022d57600080fd5b81019080803590602001909291905050506109ff565b6040518082815260200191505060405180910390f35b61028f6004803603604081101561026f57600080fd5b810190808035906020019092919080359060200190929190505050610acf565b005b34801561029d57600080fd5b506102a6610e8f565b6040518082815260200191505060405180910390f35b3480156102c857600080fd5b506102f5600480360360208110156102df57600080fd5b8101908080359060200190929190505050610e95565b6040518082815260200191505060405180910390f35b34801561031757600080fd5b506103446004803603602081101561032e57600080fd5b8101908080359060200190929190505050610f3d565b6040518082815260200191505060405180910390f35b34801561036657600080fd5b506103936004803603602081101561037d57600080fd5b8101908080359060200190929190505050611018565b6040518082600f0b815260200191505060405180910390f35b3480156103b857600080fd5b506103c1611040565b604051808260ff16815260200191505060405180910390f35b3480156103e657600080fd5b506103ef611053565b604051808273ffffffffffffffffffffffffffffffffffffffff16815260200191505060405180910390f35b34801561042757600080fd5b50610430611079565b6040518082815260200191505060405180910390f35b34801561045257600080fd5b5061045b61107f565b60405180821515815260200191505060405180910390f35b34801561047f57600080fd5b5061048861120a565b6040518082815260200191505060405180910390f35b3480156104aa57600080fd5b506104b36112c8565b60405180821515815260200191505060405180910390f35b3480156104d757600080fd5b50610507600480360360208110156104ee57600080fd5b810190808035600f0b90602001909291905050506112db565b6040518082815260200191505060405180910390f35b34801561052957600080fd5b50610532611303565b604051808273ffffffffffffffffffffffffffffffffffffffff16815260200191505060405180910390f35b34801561056a57600080fd5b5061057361132d565b005b34801561058157600080fd5b506105ae6004803603602081101561059857600080fd5b810190808035906020019092919050505061149a565b6040518082815260200191505060405180910390f35b3480156105d057600080fd5b506105d96115d2565b6040518082815260200191505060405180910390f35b3480156105fb57600080fd5b506106046115d8565b6040518082815260200191505060405180910390f35b34801561062657600080fd5b5061062f61161d565b005b34801561063d57600080fd5b506106466116e9565b604051808273ffffffffffffffffffffffffffffffffffffffff16815260200191505060405180910390f35b34801561067e57600080fd5b50610687611712565b6040518082815260200191505060405180910390f35b3480156106a957600080fd5b506106e0600480360360408110156106c057600080fd5b81019080803590602001909291908035906020019092919050505061171c565b6040518082815260200191505060405180910390f35b34801561070257600080fd5b5061070b6118ef565b6040518082815260200191505060405180910390f35b34801561072d57600080fd5b5061075a6004803603602081101561074457600080fd5b81019080803590602001909291905050506118f9565b6040518082815260200191505060405180910390f35b6107b06004803603606081101561078657600080fd5b8101908080359060200190929190803590602001909291908035906020019092919050505061199d565b005b3480156107be57600080fd5b50610801600480360360208110156107d557600080fd5b81019080803573ffffffffffffffffffffffffffffffffffffffff169060200190929190505050611e72565b005b34801561080f57600080fd5b50610818612064565b60405180821515815260200191505060405180910390f35b60008082141561084357600090506109fa565b60008290506000600190507201000000000000000000000000000000000000821061087757609082901c9150603081901b90505b6901000000000000000000821061089757604882901c9150601881901b90505b64100000000082106108b257602482901c9150600c81901b90505b6204000082106108cb57601282901c9150600681901b90505b61100082106108e357600c82901c9150600481901b90505b61020082106108fb57600982901c9150600381901b90505b6040821061091257600682901c9150600281901b90505b6008821061092257600181901b90505b6003816002026002830a868161093457fe5b04018161093d57fe5b0490506003816002026002830a868161095257fe5b04018161095b57fe5b0490506003816002026002830a868161097057fe5b04018161097957fe5b0490506003816002026002830a868161098e57fe5b04018161099757fe5b0490506003816002026002830a86816109ac57fe5b0401816109b557fe5b0490506003816002026002830a86816109ca57fe5b0401816109d357fe5b0490506003816002026002830a86816109e857fe5b0401816109f157fe5b04905080925050505b919050565b600080821415610a125760009050610aca565b610a1a61120a565b60035403821115610a76576040517f08c379a0000000000000000000000000000000000000000000000000000000008152600401808060200182810382526038815260200180612ccb6038913960400191505060405180910390fd5b6000610a8d8360035461210190919063ffffffff16565b90506000610a9d6003548361171c565b9050610ac5610ab660648361218490919063ffffffff16565b8261210190919063ffffffff16565b925050505b919050565b600760009054906101000a900460ff16610b51576040517f08c379a00000000000000000000000000000000000000000000000000000000081526004018080602001828103825260178152602001807f5468652074726164696e672069732064697361626c656400000000000000000081525060200191505060405180910390fd5b60003411610baa576040517f08c379a000000000000000000000000000000000000000000000000000000000815260040180806020018281038252602a815260200180612d95602a913960400191505060405180910390fd5b610bc160035460065461210190919063ffffffff16565b821115610c19576040517f08c379a0000000000000000000000000000000000000000000000000000000008152600401808060200182810382526036815260200180612e166036913960400191505060405180910390fd5b6000610c243461149a565b905080831115610cdc57610c5582610c476127108661218490919063ffffffff16565b61207b90919063ffffffff16565b610c68828561210190919063ffffffff16565b10610cdb576040517f08c379a000000000000000000000000000000000000000000000000000000000815260040180806020018281038252601d8152602001807f536c6970706167652067726561746572207468616e20616c6c6f77656400000081525060200191505060405180910390fd5b5b60008184039050610cf88260035461220d90919063ffffffff16565b600381905550610d096003546118f9565b600481905550600160009054906101000a900473ffffffffffffffffffffffffffffffffffffffff1673ffffffffffffffffffffffffffffffffffffffff1663a9059cbb33846040518363ffffffff1660e01b8152600401808373ffffffffffffffffffffffffffffffffffffffff16815260200182815260200192505050602060405180830381600087803b158015610da257600080fd5b505af1158015610db6573d6000803e3d6000fd5b505050506040513d6020811015610dcc57600080fd5b8101908080519060200190929190505050503373ffffffffffffffffffffffffffffffffffffffff167fa70108fc37a77e4fb183df412c5ec85d9c12294d6f4c1634c5d2a594a44db9aa8334600454600354866040518086815260200185815260200184815260200183815260200180602001838152602001828103825260038152602001807f6275790000000000000000000000000000000000000000000000000000000000815250602001965050505050505060405180910390a250505050565b60065481565b600080821415610ea85760009050610f38565b670de0b6b3a7640000821115610f09576040517f08c379a0000000000000000000000000000000000000000000000000000000008152600401808060200182810382526033815260200180612c686033913960400191505060405180910390fd5b610f35610f30610f20610f1b85611018565b612295565b610f2b600654611018565b6122be565b6112db565b90505b919050565b600080821415610f505760009050611013565b610f6760035460065461210190919063ffffffff16565b821115610fbf576040517f08c379a0000000000000000000000000000000000000000000000000000000008152600401808060200182810382526038815260200180612ccb6038913960400191505060405180910390fd5b6000610fd68360035461220d90919063ffffffff16565b90506000610fe68260035461171c565b905061100e610fff60648361218490919063ffffffff16565b8261210190919063ffffffff16565b925050505b919050565b600061103982600560009054906101000a900460ff1660ff16600a0a612329565b9050919050565b600560009054906101000a900460ff1681565b600260009054906101000a900473ffffffffffffffffffffffffffffffffffffffff1681565b60035481565b6000611089612391565b73ffffffffffffffffffffffffffffffffffffffff166110a76116e9565b73ffffffffffffffffffffffffffffffffffffffff1614611130576040517f08c379a00000000000000000000000000000000000000000000000000000000081526004018080602001828103825260208152602001807f4f776e61626c653a2063616c6c6572206973206e6f7420746865206f776e657281525060200191505060405180910390fd5b6000600354141561118b573373ffffffffffffffffffffffffffffffffffffffff166108fc479081150290604051600060405180830381858888f19350505050158015611181573d6000803e3d6000fd5b5060019050611207565b60006111a060035461119b61120a565b61171c565b905060006111b7824761210190919063ffffffff16565b90503373ffffffffffffffffffffffffffffffffffffffff166108fc829081150290604051600060405180830381858888f193505050501580156111ff573d6000803e3d6000fd5b506001925050505b90565b60006112c3600160009054906101000a900473ffffffffffffffffffffffffffffffffffffffff1673ffffffffffffffffffffffffffffffffffffffff166318160ddd6040518163ffffffff1660e01b815260040160206040518083038186803b15801561127757600080fd5b505afa15801561128b573d6000803e3d6000fd5b505050506040513d60208110156112a157600080fd5b810190808051906020019092919050505060065461210190919063ffffffff16565b905090565b600760009054906101000a900460ff1681565b60006112fc82600560009054906101000a900460ff1660ff16600a0a612399565b9050919050565b6000600260009054906101000a900473ffffffffffffffffffffffffffffffffffffffff16905090565b611335612391565b73ffffffffffffffffffffffffffffffffffffffff166113536116e9565b73ffffffffffffffffffffffffffffffffffffffff16146113dc576040517f08c379a00000000000000000000000000000000000000000000000000000000081526004018080602001828103825260208152602001807f4f776e61626c653a2063616c6c6572206973206e6f7420746865206f776e657281525060200191505060405180910390fd5b600073ffffffffffffffffffffffffffffffffffffffff1660008054906101000a900473ffffffffffffffffffffffffffffffffffffffff1673ffffffffffffffffffffffffffffffffffffffff167f8be0079c531659141344cd1fd0a4f28419497f9722a3daafe3b4186f6b6457e060405160405180910390a360008060006101000a81548173ffffffffffffffffffffffffffffffffffffffff021916908373ffffffffffffffffffffffffffffffffffffffff160217905550565b6000808214156114ad57600090506115cd565b60006114d56114c660648561218490919063ffffffff16565b8461210190919063ffffffff16565b905060006115666115616114f660065460065461207b90919063ffffffff16565b61155c6115576115176115096003612454565b61151289611018565b6122be565b61155261154261153b61152b600354611018565b611536600654611018565b612477565b60026124fa565b61154d600354611018565b6122be565b61280f565b6112db565b61207b565b610830565b90506006548111156115c3576040517f08c379a0000000000000000000000000000000000000000000000000000000008152600401808060200182810382526026815260200180612c426026913960400191505060405180910390fd5b6003548103925050505b919050565b60045481565b60008060035414156115ec5747905061161a565b60006116016003546115fc61120a565b61171c565b9050611616814761210190919063ffffffff16565b9150505b90565b611625612391565b73ffffffffffffffffffffffffffffffffffffffff166116436116e9565b73ffffffffffffffffffffffffffffffffffffffff16146116cc576040517f08c379a00000000000000000000000000000000000000000000000000000000081526004018080602001828103825260208152602001807f4f776e61626c653a2063616c6c6572206973206e6f7420746865206f776e657281525060200191505060405180910390fd5b6001600760006101000a81548160ff021916908315150217905550565b60008060009054906101000a900473ffffffffffffffffffffffffffffffffffffffff16905090565b6000600454905090565b600080828403141561173157600090506118e9565b818311611789576040517f08c379a0000000000000000000000000000000000000000000000000000000008152600401808060200182810382526022815260200180612d246022913960400191505060405180910390fd5b6006548311156117e4576040517f08c379a000000000000000000000000000000000000000000000000000000000815260040180806020018281038252602e815260200180612d67602e913960400191505060405180910390fd5b6117fb60035460065461210190919063ffffffff16565b61180e838561210190919063ffffffff16565b1115611865576040517f08c379a000000000000000000000000000000000000000000000000000000000815260040180806020018281038252602e815260200180612de8602e913960400191505060405180910390fd5b6118e66118e1611888611879600654611018565b6118836003612454565b612477565b6118dc6118b16118aa61189a89611018565b6118a5600654611018565b612477565b60036124fa565b6118d76118d06118c089611018565b6118cb600654611018565b612477565b60036124fa565b612876565b6122be565b6112db565b90505b92915050565b6000600354905090565b60008082141561190c5760009050611998565b600654821115611967576040517f08c379a0000000000000000000000000000000000000000000000000000000008152600401808060200182810382526030815260200180612c9b6030913960400191505060405180910390fd5b61199561199061198961197985611018565b611984600654611018565b612477565b60026124fa565b6112db565b90505b919050565b600083116119f6576040517f08c379a0000000000000000000000000000000000000000000000000000000008152600401808060200182810382526021815260200180612d466021913960400191505060405180910390fd5b6119fe61120a565b60035403831115611a5a576040517f08c379a0000000000000000000000000000000000000000000000000000000008152600401808060200182810382526038815260200180612ccb6038913960400191505060405180910390fd5b600160009054906101000a900473ffffffffffffffffffffffffffffffffffffffff1673ffffffffffffffffffffffffffffffffffffffff1663dd62ed3e33306040518363ffffffff1660e01b8152600401808373ffffffffffffffffffffffffffffffffffffffff1681526020018273ffffffffffffffffffffffffffffffffffffffff16815260200192505050602060405180830381600087803b158015611b0357600080fd5b505af1158015611b17573d6000803e3d6000fd5b505050506040513d6020811015611b2d57600080fd5b8101908080519060200190929190505050831115611b96576040517f08c379a0000000000000000000000000000000000000000000000000000000008152600401808060200182810382526029815260200180612dbf6029913960400191505060405180910390fd5b6000611ba1846109ff565b905080831115611c5957611bd282611bc46127108661218490919063ffffffff16565b61207b90919063ffffffff16565b611be5828561210190919063ffffffff16565b10611c58576040517f08c379a000000000000000000000000000000000000000000000000000000000815260040180806020018281038252601d8152602001807f536c6970706167652067726561746572207468616e20616c6c6f77656400000081525060200191505060405180910390fd5b5b60008184039050600160009054906101000a900473ffffffffffffffffffffffffffffffffffffffff1673ffffffffffffffffffffffffffffffffffffffff166323b872dd3330886040518463ffffffff1660e01b8152600401808473ffffffffffffffffffffffffffffffffffffffff1681526020018373ffffffffffffffffffffffffffffffffffffffff1681526020018281526020019350505050602060405180830381600087803b158015611d1157600080fd5b505af1158015611d25573d6000803e3d6000fd5b505050506040513d6020811015611d3b57600080fd5b810190808051906020019092919050505050611d628560035461210190919063ffffffff16565b600381905550611d736003546118f9565b6004819055503373ffffffffffffffffffffffffffffffffffffffff167fa70108fc37a77e4fb183df412c5ec85d9c12294d6f4c1634c5d2a594a44db9aa8684600454600354866040518086815260200185815260200184815260200183815260200180602001838152602001828103825260048152602001807f73656c6c00000000000000000000000000000000000000000000000000000000815250602001965050505050505060405180910390a23373ffffffffffffffffffffffffffffffffffffffff166108fc839081150290604051600060405180830381858888f19350505050158015611e6a573d6000803e3d6000fd5b505050505050565b611e7a612391565b73ffffffffffffffffffffffffffffffffffffffff16611e986116e9565b73ffffffffffffffffffffffffffffffffffffffff1614611f21576040517f08c379a00000000000000000000000000000000000000000000000000000000081526004018080602001828103825260208152602001807f4f776e61626c653a2063616c6c6572206973206e6f7420746865206f776e657281525060200191505060405180910390fd5b600073ffffffffffffffffffffffffffffffffffffffff168173ffffffffffffffffffffffffffffffffffffffff161415611fa7576040517f08c379a0000000000000000000000000000000000000000000000000000000008152600401808060200182810382526026815260200180612c1c6026913960400191505060405180910390fd5b8073ffffffffffffffffffffffffffffffffffffffff1660008054906101000a900473ffffffffffffffffffffffffffffffffffffffff1673ffffffffffffffffffffffffffffffffffffffff167f8be0079c531659141344cd1fd0a4f28419497f9722a3daafe3b4186f6b6457e060405160405180910390a3806000806101000a81548173ffffffffffffffffffffffffffffffffffffffff021916908373ffffffffffffffffffffffffffffffffffffffff16021790555050565b6000600760009054906101000a900460ff16905090565b60008083141561208e57600090506120fb565b600082840290508284828161209f57fe5b04146120f6576040517f08c379a0000000000000000000000000000000000000000000000000000000008152600401808060200182810382526021815260200180612d036021913960400191505060405180910390fd5b809150505b92915050565b600082821115612179576040517f08c379a000000000000000000000000000000000000000000000000000000000815260040180806020018281038252601e8152602001807f536166654d6174683a207375627472616374696f6e206f766572666c6f77000081525060200191505060405180910390fd5b818303905092915050565b60008082116121fb576040517f08c379a000000000000000000000000000000000000000000000000000000000815260040180806020018281038252601a8152602001807f536166654d6174683a206469766973696f6e206279207a65726f00000000000081525060200191505060405180910390fd5b81838161220457fe5b04905092915050565b60008082840190508381101561228b576040517f08c379a000000000000000000000000000000000000000000000000000000000815260040180806020018281038252601b8152602001807f536166654d6174683a206164646974696f6e206f766572666c6f77000000000081525060200191505060405180910390fd5b8091505092915050565b60008082600f0b12156122a757600080fd5b6122b7604083600f0b901b6128dd565b9050919050565b600080604083600f0b85600f0b02901d90507fffffffffffffffffffffffffffffffff80000000000000000000000000000000600f0b811215801561231657506f7fffffffffffffffffffffffffffffff600f0b8113155b61231f57600080fd5b8091505092915050565b60008082141561233857600080fd5b60006123448484612a5a565b90506f7fffffffffffffffffffffffffffffff6fffffffffffffffffffffffffffffffff16816fffffffffffffffffffffffffffffffff16111561238757600080fd5b8091505092915050565b600033905090565b6000808214156123ac576000905061244e565b600083600f0b12156123bd57600080fd5b600060406fffffffffffffffffffffffffffffffff841685600f0b02901c90506000608084901c85600f0b02905077ffffffffffffffffffffffffffffffffffffffffffffffff81111561241057600080fd5b604081901b9050817fffffffffffffffffffffffffffffffffffffffffffffffffffffffffffffffff0381111561244657600080fd5b818101925050505b92915050565b6000677fffffffffffffff82111561246b57600080fd5b604082901b9050919050565b60008082600f0b141561248957600080fd5b600082600f0b604085600f0b901b8161249e57fe5b0590507fffffffffffffffffffffffffffffffff80000000000000000000000000000000600f0b81121580156124e757506f7fffffffffffffffffffffffffffffff600f0b8113155b6124f057600080fd5b8091505092915050565b600080600084600f0b12801561251257506001808416145b905060008085600f0b12612526578461252b565b846000035b6fffffffffffffffffffffffffffffffff1690506000700100000000000000000000000000000000905068010000000000000000821161260557603f82901b91505b600085146125f9576000600186161461258a57607f828202901c90505b607f828302901c9150600060028616146125a857607f828202901c90505b607f828302901c9150600060048616146125c657607f828202901c90505b607f828302901c9150600060088616146125e457607f828202901c90505b607f828302901c9150600485901c945061256d565b604081901c905061279f565b6000603f90506c0100000000000000000000000083101561262e57602083901b92506020810390505b6e01000000000000000000000000000083101561265357601083901b92506010810390505b6f0100000000000000000000000000000083101561267957600883901b92506008810390505b6f1000000000000000000000000000000083101561269f57600483901b92506004810390505b6f400000000000000000000000000000008310156126c557600283901b92506002810390505b6f800000000000000000000000000000008310156126eb57600183901b92506001810390505b60005b60008714612786576040821061270357600080fd5b6000600188161461274457607f848402901c9250818101905070010000000000000000000000000000000083111561274357600183901c92506001810190505b5b607f848502901c9350600182901b9150700100000000000000000000000000000000841061277a57600184901c93506001820191505b600187901c96506126ee565b6040811061279357600080fd5b8060400383901c925050505b6000836127ac57816127b1565b816000035b90507fffffffffffffffffffffffffffffffff80000000000000000000000000000000600f0b81121580156127f957506f7fffffffffffffffffffffffffffffff600f0b8113155b61280257600080fd5b8094505050505092915050565b60008082600f0b84600f0b0190507fffffffffffffffffffffffffffffffff80000000000000000000000000000000600f0b811215801561286357506f7fffffffffffffffffffffffffffffff600f0b8113155b61286c57600080fd5b8091505092915050565b60008082600f0b84600f0b0390507fffffffffffffffffffffffffffffffff80000000000000000000000000000000600f0b81121580156128ca57506f7fffffffffffffffffffffffffffffff600f0b8113155b6128d357600080fd5b8091505092915050565b6000808214156128f05760009050612a55565b6000829050600060019050700100000000000000000000000000000000821061292257608082901c9150604081901b90505b68010000000000000000821061294157604082901c9150602081901b90505b640100000000821061295c57602082901c9150601081901b90505b62010000821061297557601082901c9150600881901b90505b610100821061298d57600882901c9150600481901b90505b601082106129a457600482901c9150600281901b90505b600882106129b457600181901b90505b60018185816129bf57fe5b048201901c905060018185816129d157fe5b048201901c905060018185816129e357fe5b048201901c905060018185816129f557fe5b048201901c90506001818581612a0757fe5b048201901c90506001818581612a1957fe5b048201901c90506001818581612a2b57fe5b048201901c90506000818581612a3d57fe5b049050808210612a4d5780612a4f565b815b93505050505b919050565b600080821415612a6957600080fd5b600077ffffffffffffffffffffffffffffffffffffffffffffffff8411612a9f5782604085901b81612a9757fe5b049050612bf4565b600060c09050600060c086901c90506401000000008110612ac857602081901c90506020820191505b620100008110612ae057601081901c90506010820191505b6101008110612af757600881901c90506008820191505b60108110612b0d57600481901c90506004820191505b60048110612b2357600281901c90506002820191505b60028110612b32576001820191505b600160bf830360018703901c018260ff0387901b81612b4d57fe5b0492506fffffffffffffffffffffffffffffffff831115612b6d57600080fd5b6000608086901c8402905060006fffffffffffffffffffffffffffffffff871685029050600060c089901c9050600060408a901b905082811015612bb2576001820391505b8281039050608084901b925082811015612bcd576001820391505b8281039050608084901c8214612bdf57fe5b888181612be857fe5b04870196505050505050505b6fffffffffffffffffffffffffffffffff811115612c1157600080fd5b809150509291505056fe4f776e61626c653a206e6577206f776e657220697320746865207a65726f2061646472657373537570706c7920546f702067726561746572207468616e20696e697469616c20737570706c79426f6e64696e67204375727665207465726d696e617465732062656c6f77204554482f624e4f4d20707269636520696e707574426f6e64696e67204375727665207465726d696e617465732062656c6f7720624e4f4d20616d6f756e7420696e70757453656c6c20616d6f756e74206f6620624e4f4d2067726561746572207468616e20756e626f6e64656420616d6f756e74206f6620624e4f4d536166654d6174683a206d756c7469706c69636174696f6e206f766572666c6f77537570706c7920426f742067726561746572207468616e20537570706c7920546f7053656c6c20616d6f756e74206f6620624e4f4d20657175616c20746f207a65726f537570706c7920546f702067726561746572207468616e20696e697469616c20737570706c79206f6620624e4f4d416d6f756e74204554482073656e742077697468207265717565737420657175616c20746f207a65726f496e73756666696369656e7420426f6e6420436f6e747261637420624e4f4d20616c6c6f77616e6365526571756573742067726561746572207468616e2074686520626f6e64656420737570706c79206f6620624e4f4d457374696d6174656420616d6f756e74206f6620624e4f4d206772656174657220626f6e64656420737570706c79206f6620624e4f4da2646970667358221220866db4554f310636ac5cfb85df93ff7db7593ccde78f51b1154f09eaeb2a351664736f6c63430007060033536166654d6174683a206d756c7469706c69636174696f6e206f766572666c6f77",
  "linkReferences": {},
  "deployedLinkReferences": {}
}